:08000000803102288731FD2F39
:100C34000030863132268631013086313226080072
:100C4400013086313226863108308631322608005A
:100C540001308631322686310C3086313226080046
:100C6400F20020000D1372088631462686312000DA
:100C74008D161530F100C630890B3E2EF10B3E2E39
:100C8400003220008D120800F000701C4C2E200051
:100C94000E164E2E20000E12F01C522E8E16532EBF
:100CA4008E12701D572E0E17582E0E13F01D5C2E2B
:100CB4008E1708008E130800F801F90175087807EB
:100CC40084007608793D8500120003190800750830
:100CD400780784007608793D8500000886317826F7
:100CE40086310130F8070030F93D602EF4007408B5
:100CF4000F39F1007108F2007408F039F10071083D
:100D0400F30020000D177308F1000430F136890B4D
:100D1400882E710886314626863120008D1635309E
:100D2400890B922E000020008D127208863146260F
:100D3400863120008D163530890B9E2E0000200050
:100D44008D120800F6007603031DC42E73087F3E3F
:100D5400F4007408F9007908F4000430F436890BBF
:100D6400B02E7408F5007508F70079080F39F400FF
:100D74007408F8007708863132268631780886317F
:100D84003226080002307606031D08007308BF3EB1
:100D9400F4007408F9007908F4000430F436890B7F
:100DA400D02E7408F5007508F70079080F39F4009F
:100DB4007408F8007708863132268631780886313F
:100DC4003226080000308631462686316830F3002A
:100DD400E430890BEB2EF30BEB2E0032033086311B
:100DE400322686311A30F300F830890BF72EF30BD4
:100DF400F72E003203308631322686313A30F30042
:100E04002330890B032FF30B032F000003308631AB
:100E140032268631023086313226863102308631DE
:100E240032268631083086313226863100308631CA
:100E3400322686310C3086313226863100308631B6
:100E440032268631063086313226080021008D0193
:100E540023000E128E120E138E1321008E01230016
:100E64008D120D138631E426873186311A26873197
:100E7400F301F30A01308631A42687311430F500DA
:100E84008830F60086315E268731F301F30A02309A
:100E94008631A42687313D30F5008830F60086314E
:100EA4005E2687312930FB009630FA007F30890BAB
:100EB400592FFA0B592FFB0B592F000086311A2694
:100EC4008731F301F30A01308631A42687312430B7
:100ED400F5008830F60086315E268731F301F30A87
:100EE40002308631A42687313130F5008830F6008F
:100EF40086315E2687312930FB009630FA007F3038
:100F0400890B822FFA0B822FFB0B822F0000863174
:100F14001A268731F301F30A01308631A42687317A
:100F24000030F5008830F60086315E268731FC01FA
:100F3400FD0100307D020F3003197C020318BC2F21
:100F44000730FB001730FA006A30890BA72FFA0B21
:100F5400A72FFB0BA72F00328631222687310130C1
:100F6400FC070030FD3D00307D020F3003197C0288
:100F7400031CA22FFC01FD0100307D020F30031978
:100F84007C020318DF2F0730FB001730FA006A30A9
:100F9400890BCA2FFA0BCA2FFB0BCA2F00328631DA
:100FA4002A2687310130FC070030FD3D00307D02E8
:100FB4000F3003197C02031CC52F86311A26873192
:100FC400F301F30A02308631A42687316530863175
:100FD4007826873153308631782687312930FB00D3
:100FE4009630FA007F30890BF52FFA0BF52FFB0BA7
:100FF400F52F0000372F20008731282F77347734DE
:1010040077342E3465346C34653463347434723418
:101014006F3453346F346D3465342E3463346F3429
:101024006D3400344C344334443420344C34693407
:1010340062347234613472347934203466346F34F7
:101044007234003444346534763465346C346F342B
:101054007034653464342034423479340034653473
:101064006C3465346334743472346F3453346F3491
:101074006D34653400344D3450344C34413442348E
:0A108400203458344334383400346B
:020000040001F9
:08000E00FAFFF3FFFFFFFFFF03
:00000001FF
